{
  "address": "0x80858887fE013B3d3F486068Cdb15FA612B21754",
  "abi": [
    {
      "anonymous": false,
      "inputs": [
        {
          "indexed": false,
          "internalType": "uint256",
          "name": "id",
          "type": "uint256"
        },
        {
          "indexed": false,
          "internalType": "uint256",
          "name": "donateAmount",
          "type": "uint256"
        },
        {
          "indexed": false,
          "internalType": "address payable",
          "name": "author",
          "type": "address"
        }
      ],
      "name": "ImageDonated",
      "type": "event"
    },
    {
      "anonymous": false,
      "inputs": [
        {
          "indexed": false,
          "internalType": "uint256",
          "name": "id",
          "type": "uint256"
        },
        {
          "indexed": false,
          "internalType": "uint256",
          "name": "donateAmount",
          "type": "uint256"
        },
        {
          "indexed": false,
          "internalType": "address payable",
          "name": "author",
          "type": "address"
        },
        {
          "indexed": false,
          "internalType": "string",
          "name": "hash",
          "type": "string"
        },
        {
          "indexed": false,
          "internalType": "string",
          "name": "description",
          "type": "string"
        }
      ],
      "name": "ImageUploaded",
      "type": "event"
    },
    {
      "inputs": [
        {
          "internalType": "uint256",
          "name": "_id",
          "type": "uint256"
        }
      ],
      "name": "donateImageOwner",
      "outputs": [],
      "stateMutability": "payable",
      "type": "function"
    },
    {
      "inputs": [],
      "name": "getImageCount",
      "outputs": [
        {
          "internalType": "uint256",
          "name": "",
          "type": "uint256"
        }
      ],
      "stateMutability": "view",
      "type": "function"
    },
    {
      "inputs": [
        {
          "internalType": "uint256",
          "name": "_id",
          "type": "uint256"
        }
      ],
      "name": "getImageFromId",
      "outputs": [
        {
          "components": [
            {
              "internalType": "uint256",
              "name": "id",
              "type": "uint256"
            },
            {
              "internalType": "uint256",
              "name": "donateAmount",
              "type": "uint256"
            },
            {
              "internalType": "address payable",
              "name": "author",
              "type": "address"
            },
            {
              "internalType": "string",
              "name": "hash",
              "type": "string"
            },
            {
              "internalType": "string",
              "name": "description",
              "type": "string"
            }
          ],
          "internalType": "struct DecentraPinterest.image",
          "name": "",
          "type": "tuple"
        }
      ],
      "stateMutability": "view",
      "type": "function"
    },
    {
      "inputs": [
        {
          "internalType": "uint256",
          "name": "",
          "type": "uint256"
        }
      ],
      "name": "images",
      "outputs": [
        {
          "internalType": "uint256",
          "name": "id",
          "type": "uint256"
        },
        {
          "internalType": "uint256",
          "name": "donateAmount",
          "type": "uint256"
        },
        {
          "internalType": "address payable",
          "name": "author",
          "type": "address"
        },
        {
          "internalType": "string",
          "name": "hash",
          "type": "string"
        },
        {
          "internalType": "string",
          "name": "description",
          "type": "string"
        }
      ],
      "stateMutability": "view",
      "type": "function"
    },
    {
      "inputs": [],
      "name": "name",
      "outputs": [
        {
          "internalType": "string",
          "name": "",
          "type": "string"
        }
      ],
      "stateMutability": "view",
      "type": "function"
    },
    {
      "inputs": [
        {
          "internalType": "string",
          "name": "_imageHash",
          "type": "string"
        },
        {
          "internalType": "string",
          "name": "_imageDescription",
          "type": "string"
        }
      ],
      "name": "uploadImage",
      "outputs": [],
      "stateMutability": "nonpayable",
      "type": "function"
    },
    {
      "stateMutability": "payable",
      "type": "receive"
    }
  ],
  "transactionHash": "0x26f2d434ebcf2d20ab8ccd6b04c88216904c902dad11c73fd1ef9938e4e1e2cc",
  "args": [],
  "numDeployments": 1,
  "solcInputHash": "de7afe1d87c223de95e73c21b11e255c",
  "bytecode": "0x60806040526040518060400160405280601281526020017f446563656e7472612d50696e7465726573740000000000000000000000000000815250600290816200004a9190620002e1565b503480156200005857600080fd5b506001600081905550620003c8565b600081519050919050565b7f4e487b7100000000000000000000000000000000000000000000000000000000600052604160045260246000fd5b7f4e487b7100000000000000000000000000000000000000000000000000000000600052602260045260246000fd5b60006002820490506001821680620000e957607f821691505b602082108103620000ff57620000fe620000a1565b5b50919050565b60008190508160005260206000209050919050565b60006020601f8301049050919050565b600082821b905092915050565b600060088302620001697fffffffffffffffffffffffffffffffffffffffffffffffffffffffffffffffff826200012a565b6200017586836200012a565b95508019841693508086168417925050509392505050565b6000819050919050565b6000819050919050565b6000620001c2620001bc620001b6846200018d565b62000197565b6200018d565b9050919050565b6000819050919050565b620001de83620001a1565b620001f6620001ed82620001c9565b84845462000137565b825550505050565b600090565b6200020d620001fe565b6200021a818484620001d3565b505050565b5b8181101562000242576200023660008262000203565b60018101905062000220565b5050565b601f82111562000291576200025b8162000105565b62000266846200011a565b8101602085101562000276578190505b6200028e62000285856200011a565b8301826200021f565b50505b505050565b600082821c905092915050565b6000620002b66000198460080262000296565b1980831691505092915050565b6000620002d18383620002a3565b9150826002028217905092915050565b620002ec8262000067565b67ffffffffffffffff81111562000308576200030762000072565b5b620003148254620000d0565b6200032182828562000246565b600060209050601f83116001811462000359576000841562000344578287015190505b620003508582620002c3565b865550620003c0565b601f198416620003698662000105565b60005b8281101562000393578489015182556001820191506020850194506020810190506200036c565b86831015620003b35784890151620003af601f891682620002a3565b8355505b6001600288020188555050505b505050505050565b61175480620003d86000396000f3fe6080604052600436106100595760003560e01c806306fdde03146100655780635da540d51461009057806384856482146100ac578063a91b8314146100ed578063bee0fd6f14610116578063f97c44a91461015357610060565b3661006057005b600080fd5b34801561007157600080fd5b5061007a61017e565b6040516100879190610c8f565b60405180910390f35b6100aa60048036038101906100a59190610cfb565b61020c565b005b3480156100b857600080fd5b506100d360048036038101906100ce9190610cfb565b6105f1565b6040516100e4959493929190610d78565b60405180910390f35b3480156100f957600080fd5b50610114600480360381019061010f9190610f0e565b610757565b005b34801561012257600080fd5b5061013d60048036038101906101389190610cfb565b61098e565b60405161014a919061106b565b60405180910390f35b34801561015f57600080fd5b50610168610b9a565b604051610175919061108d565b60405180910390f35b6002805461018b906110d7565b80601f01602080910402602001604051908101604052809291908181526020018280546101b7906110d7565b80156102045780601f106101d957610100808354040283529160200191610204565b820191906000526020600020905b8154815290600101906020018083116101e757829003601f168201915b505050505081565b600160008082825461021e9190611137565b9250508190555060008054905060008211801561023d57506001548211155b61027c576040517f08c379a0000000000000000000000000000000000000000000000000000000008152600401610273906111b7565b60405180910390fd5b6000600360008481526020019081526020016000206040518060a001604052908160008201548152602001600182015481526020016002820160009054906101000a900473ffffffffffffffffffffffffffffffffffffffff1673ffffffffffffffffffffffffffffffffffffffff1673ffffffffffffffffffffffffffffffffffffffff168152602001600382018054610316906110d7565b80601f0160208091040260200160405190810160405280929190818152602001828054610342906110d7565b801561038f5780601f106103645761010080835404028352916020019161038f565b820191906000526020600020905b81548152906001019060200180831161037257829003601f168201915b505050505081526020016004820180546103a8906110d7565b80601f01602080910402602001604051908101604052809291908181526020018280546103d4906110d7565b80156104215780601f106103f657610100808354040283529160200191610421565b820191906000526020600020905b81548152906001019060200180831161040457829003601f168201915b505050505081525050905060008160400151905060008173ffffffffffffffffffffffffffffffffffffffff163460405161045b90611208565b60006040518083038185875af1925050503d8060008114610498576040519150601f19603f3d011682016040523d82523d6000602084013e61049d565b606091505b50509050806104e1576040517f08c379a00000000000000000000000000000000000000000000000000000000081526004016104d890611269565b60405180910390fd5b6104f8348460200151610ba490919063ffffffff16565b8360200181815250508260036000878152602001908152602001600020600082015181600001556020820151816001015560408201518160020160006101000a81548173ffffffffffffffffffffffffffffffffffffffff021916908373ffffffffffffffffffffffffffffffffffffffff16021790555060608201518160030190816105859190611435565b50608082015181600401908161059b9190611435565b509050507f5aa8ebb7a52d471096ce039cccb870ac440f31fb12c240634088828ee709b56660015434336040516105d493929190611507565b60405180910390a150505060005481146105ed57600080fd5b5050565b60036020528060005260406000206000915090508060000154908060010154908060020160009054906101000a900473ffffffffffffffffffffffffffffffffffffffff1690806003018054610646906110d7565b80601f0160208091040260200160405190810160405280929190818152602001828054610672906110d7565b80156106bf5780601f10610694576101008083540402835291602001916106bf565b820191906000526020600020905b8154815290600101906020018083116106a257829003601f168201915b5050505050908060040180546106d4906110d7565b80601f0160208091040260200160405190810160405280929190818152602001828054610700906110d7565b801561074d5780601f106107225761010080835404028352916020019161074d565b820191906000526020600020905b81548152906001019060200180831161073057829003601f168201915b5050505050905085565b600073ffffffffffffffffffffffffffffffffffffffff163373ffffffffffffffffffffffffffffffffffffffff16036107c6576040517f08c379a00000000000000000000000000000000000000000000000000000000081526004016107bd9061158a565b60405180910390fd5b600081511161080a576040517f08c379a0000000000000000000000000000000000000000000000000000000008152600401610801906115f6565b60405180910390fd5b600082511161084e576040517f08c379a000000000000000000000000000000000000000000000000000000000815260040161084590611662565b60405180910390fd5b61086360018054610ba490919063ffffffff16565b6001819055506040518060a001604052806001548152602001600081526020013373ffffffffffffffffffffffffffffffffffffffff16815260200183815260200182815250600360006001548152602001908152602001600020600082015181600001556020820151816001015560408201518160020160006101000a81548173ffffffffffffffffffffffffffffffffffffffff021916908373ffffffffffffffffffffffffffffffffffffffff160217905550606082015181600301908161092e9190611435565b5060808201518160040190816109449190611435565b509050507fb04363dde707152a8d58daf00a1252abf173602c7651e98c24e4df3916a0fa0d60015460003385856040516109829594939291906116bd565b60405180910390a15050565b610996610bba565b6000821180156109a857506001548211155b6109e7576040517f08c379a00000000000000000000000000000000000000000000000000000000081526004016109de906111b7565b60405180910390fd5b600360008381526020019081526020016000206040518060a001604052908160008201548152602001600182015481526020016002820160009054906101000a900473ffffffffffffffffffffffffffffffffffffffff1673ffffffffffffffffffffffffffffffffffffffff1673ffffffffffffffffffffffffffffffffffffffff168152602001600382018054610a7f906110d7565b80601f0160208091040260200160405190810160405280929190818152602001828054610aab906110d7565b8015610af85780601f10610acd57610100808354040283529160200191610af8565b820191906000526020600020905b815481529060010190602001808311610adb57829003601f168201915b50505050508152602001600482018054610b11906110d7565b80601f0160208091040260200160405190810160405280929190818152602001828054610b3d906110d7565b8015610b8a5780601f10610b5f57610100808354040283529160200191610b8a565b820191906000526020600020905b815481529060010190602001808311610b6d57829003601f168201915b5050505050815250509050919050565b6000600154905090565b60008183610bb29190611137565b905092915050565b6040518060a001604052806000815260200160008152602001600073ffffffffffffffffffffffffffffffffffffffff16815260200160608152602001606081525090565b600081519050919050565b600082825260208201905092915050565b60005b83811015610c39578082015181840152602081019050610c1e565b60008484015250505050565b6000601f19601f8301169050919050565b6000610c6182610bff565b610c6b8185610c0a565b9350610c7b818560208601610c1b565b610c8481610c45565b840191505092915050565b60006020820190508181036000830152610ca98184610c56565b905092915050565b6000604051905090565b600080fd5b600080fd5b6000819050919050565b610cd881610cc5565b8114610ce357600080fd5b50565b600081359050610cf581610ccf565b92915050565b600060208284031215610d1157610d10610cbb565b5b6000610d1f84828501610ce6565b91505092915050565b610d3181610cc5565b82525050565b600073ffffffffffffffffffffffffffffffffffffffff82169050919050565b6000610d6282610d37565b9050919050565b610d7281610d57565b82525050565b600060a082019050610d8d6000830188610d28565b610d9a6020830187610d28565b610da76040830186610d69565b8181036060830152610db98185610c56565b90508181036080830152610dcd8184610c56565b90509695505050505050565b600080fd5b600080fd5b7f4e487b7100000000000000000000000000000000000000000000000000000000600052604160045260246000fd5b610e1b82610c45565b810181811067ffffffffffffffff82111715610e3a57610e39610de3565b5b80604052505050565b6000610e4d610cb1565b9050610e598282610e12565b919050565b600067ffffffffffffffff821115610e7957610e78610de3565b5b610e8282610c45565b9050602081019050919050565b82818337600083830152505050565b6000610eb1610eac84610e5e565b610e43565b905082815260208101848484011115610ecd57610ecc610dde565b5b610ed8848285610e8f565b509392505050565b600082601f830112610ef557610ef4610dd9565b5b8135610f05848260208601610e9e565b91505092915050565b60008060408385031215610f2557610f24610cbb565b5b600083013567ffffffffffffffff811115610f4357610f42610cc0565b5b610f4f85828601610ee0565b925050602083013567ffffffffffffffff811115610f7057610f6f610cc0565b5b610f7c85828601610ee0565b9150509250929050565b610f8f81610cc5565b82525050565b610f9e81610d57565b82525050565b600082825260208201905092915050565b6000610fc082610bff565b610fca8185610fa4565b9350610fda818560208601610c1b565b610fe381610c45565b840191505092915050565b600060a0830160008301516110066000860182610f86565b5060208301516110196020860182610f86565b50604083015161102c6040860182610f95565b50606083015184820360608601526110448282610fb5565b9150506080830151848203608086015261105e8282610fb5565b9150508091505092915050565b600060208201905081810360008301526110858184610fee565b905092915050565b60006020820190506110a26000830184610d28565b92915050565b7f4e487b7100000000000000000000000000000000000000000000000000000000600052602260045260246000fd5b600060028204905060018216806110ef57607f821691505b602082108103611102576111016110a8565b5b50919050565b7f4e487b7100000000000000000000000000000000000000000000000000000000600052601160045260246000fd5b600061114282610cc5565b915061114d83610cc5565b925082820190508082111561116557611164611108565b5b92915050565b7f496e76616c696420696400000000000000000000000000000000000000000000600082015250565b60006111a1600a83610c0a565b91506111ac8261116b565b602082019050919050565b600060208201905081810360008301526111d081611194565b9050919050565b600081905092915050565b50565b60006111f26000836111d7565b91506111fd826111e2565b600082019050919050565b6000611213826111e5565b9150819050919050565b7f46616c696420746f2073656e6420455448000000000000000000000000000000600082015250565b6000611253601183610c0a565b915061125e8261121d565b602082019050919050565b6000602082019050818103600083015261128281611246565b9050919050565b60008190508160005260206000209050919050565b60006020601f8301049050919050565b600082821b905092915050565b6000600883026112eb7fffffffffffffffffffffffffffffffffffffffffffffffffffffffffffffffff826112ae565b6112f586836112ae565b95508019841693508086168417925050509392505050565b6000819050919050565b600061133261132d61132884610cc5565b61130d565b610cc5565b9050919050565b6000819050919050565b61134c83611317565b61136061135882611339565b8484546112bb565b825550505050565b600090565b611375611368565b611380818484611343565b505050565b5b818110156113a45761139960008261136d565b600181019050611386565b5050565b601f8211156113e9576113ba81611289565b6113c38461129e565b810160208510156113d2578190505b6113e66113de8561129e565b830182611385565b50505b505050565b600082821c905092915050565b600061140c600019846008026113ee565b1980831691505092915050565b600061142583836113fb565b9150826002028217905092915050565b61143e82610bff565b67ffffffffffffffff81111561145757611456610de3565b5b61146182546110d7565b61146c8282856113a8565b600060209050601f83116001811461149f576000841561148d578287015190505b6114978582611419565b8655506114ff565b601f1984166114ad86611289565b60005b828110156114d5578489015182556001820191506020850194506020810190506114b0565b868310156114f257848901516114ee601f8916826113fb565b8355505b6001600288020188555050505b505050505050565b600060608201905061151c6000830186610d28565b6115296020830185610d28565b6115366040830184610d69565b949350505050565b7f75706c6f6164496d6167652066726f6d207a65726f2061646472657373000000600082015250565b6000611574601d83610c0a565b915061157f8261153e565b602082019050919050565b600060208201905081810360008301526115a381611567565b9050919050565b7f696e636f7272656374206465736372697074696f6e0000000000000000000000600082015250565b60006115e0601583610c0a565b91506115eb826115aa565b602082019050919050565b6000602082019050818103600083015261160f816115d3565b9050919050565b7f696e636f72726563742068617368000000000000000000000000000000000000600082015250565b600061164c600e83610c0a565b915061165782611616565b602082019050919050565b6000602082019050818103600083015261167b8161163f565b9050919050565b6000819050919050565b60006116a76116a261169d84611682565b61130d565b610cc5565b9050919050565b6116b78161168c565b82525050565b600060a0820190506116d26000830188610d28565b6116df60208301876116ae565b6116ec6040830186610d69565b81810360608301526116fe8185610c56565b905081810360808301526117128184610c56565b9050969550505050505056fea2646970667358221220aa4cfb42e77335fbbcc5a3d572a24cbbaf876102df9d0d8e15db182e31e4e01064736f6c63430008130033",
  "devdoc": {
    "kind": "dev",
    "methods": {},
    "version": 1
  },
  "userdoc": {
    "kind": "user",
    "methods": {},
    "version": 1
  },
  "storageLayout": {
    "storage": [
      {
        "astId": 5,
        "contract": "contracts/Youtube.sol:DecentraPinterest",
        "label": "_guardCounter",
        "offset": 0,
        "slot": "0",
        "type": "t_uint256"
      },
      {
        "astId": 78,
        "contract": "contracts/Youtube.sol:DecentraPinterest",
        "label": "s_imageCount",
        "offset": 0,
        "slot": "1",
        "type": "t_uint256"
      },
      {
        "astId": 81,
        "contract": "contracts/Youtube.sol:DecentraPinterest",
        "label": "name",
        "offset": 0,
        "slot": "2",
        "type": "t_string_storage"
      },
      {
        "astId": 86,
        "contract": "contracts/Youtube.sol:DecentraPinterest",
        "label": "images",
        "offset": 0,
        "slot": "3",
        "type": "t_mapping(t_uint256,t_struct(image)97_storage)"
      }
    ],
    "types": {
      "t_address_payable": {
        "encoding": "inplace",
        "label": "address payable",
        "numberOfBytes": "20"
      },
      "t_mapping(t_uint256,t_struct(image)97_storage)": {
        "encoding": "mapping",
        "key": "t_uint256",
        "label": "mapping(uint256 => struct DecentraPinterest.image)",
        "numberOfBytes": "32",
        "value": "t_struct(image)97_storage"
      },
      "t_string_storage": {
        "encoding": "bytes",
        "label": "string",
        "numberOfBytes": "32"
      },
      "t_struct(image)97_storage": {
        "encoding": "inplace",
        "label": "struct DecentraPinterest.image",
        "members": [
          {
            "astId": 88,
            "contract": "contracts/Youtube.sol:DecentraPinterest",
            "label": "id",
            "offset": 0,
            "slot": "0",
            "type": "t_uint256"
          },
          {
            "astId": 90,
            "contract": "contracts/Youtube.sol:DecentraPinterest",
            "label": "donateAmount",
            "offset": 0,
            "slot": "1",
            "type": "t_uint256"
          },
          {
            "astId": 92,
            "contract": "contracts/Youtube.sol:DecentraPinterest",
            "label": "author",
            "offset": 0,
            "slot": "2",
            "type": "t_address_payable"
          },
          {
            "astId": 94,
            "contract": "contracts/Youtube.sol:DecentraPinterest",
            "label": "hash",
            "offset": 0,
            "slot": "3",
            "type": "t_string_storage"
          },
          {
            "astId": 96,
            "contract": "contracts/Youtube.sol:DecentraPinterest",
            "label": "description",
            "offset": 0,
            "slot": "4",
            "type": "t_string_storage"
          }
        ],
        "numberOfBytes": "160"
      },
      "t_uint256": {
        "encoding": "inplace",
        "label": "uint256",
        "numberOfBytes": "32"
      }
    }
  }
}